{
  "contractName": "SistemaVotacion",
  "abi": [
    {
      "inputs": [],
      "stateMutability": "nonpayable",
      "type": "constructor"
    },
    {
      "anonymous": false,
      "inputs": [
        {
          "indexed": false,
          "internalType": "string",
          "name": "mensaje",
          "type": "string"
        }
      ],
      "name": "EnviarMensaje",
      "type": "event"
    },
    {
      "inputs": [
        {
          "internalType": "uint256",
          "name": "",
          "type": "uint256"
        }
      ],
      "name": "candidatos",
      "outputs": [
        {
          "internalType": "string",
          "name": "nombre",
          "type": "string"
        },
        {
          "internalType": "uint256",
          "name": "numero",
          "type": "uint256"
        },
        {
          "internalType": "uint256",
          "name": "votos",
          "type": "uint256"
        }
      ],
      "stateMutability": "view",
      "type": "function"
    },
    {
      "inputs": [
        {
          "internalType": "uint256",
          "name": "",
          "type": "uint256"
        }
      ],
      "name": "votantes",
      "outputs": [
        {
          "internalType": "string",
          "name": "nombre",
          "type": "string"
        },
        {
          "internalType": "string",
          "name": "apellido",
          "type": "string"
        },
        {
          "internalType": "uint256",
          "name": "dni",
          "type": "uint256"
        },
        {
          "internalType": "string",
          "name": "voto",
          "type": "string"
        }
      ],
      "stateMutability": "view",
      "type": "function"
    },
    {
      "inputs": [],
      "name": "getCandidatos",
      "outputs": [
        {
          "components": [
            {
              "internalType": "string",
              "name": "nombre",
              "type": "string"
            },
            {
              "internalType": "uint256",
              "name": "numero",
              "type": "uint256"
            },
            {
              "internalType": "uint256",
              "name": "votos",
              "type": "uint256"
            }
          ],
          "internalType": "struct SistemaVotacion.Candidato[]",
          "name": "",
          "type": "tuple[]"
        }
      ],
      "stateMutability": "view",
      "type": "function"
    },
    {
      "inputs": [
        {
          "internalType": "uint256",
          "name": "_dni",
          "type": "uint256"
        }
      ],
      "name": "buscarVotante",
      "outputs": [
        {
          "internalType": "bool",
          "name": "",
          "type": "bool"
        }
      ],
      "stateMutability": "view",
      "type": "function"
    },
    {
      "inputs": [
        {
          "internalType": "string",
          "name": "_nombre",
          "type": "string"
        },
        {
          "internalType": "string",
          "name": "_apellido",
          "type": "string"
        },
        {
          "internalType": "uint256",
          "name": "_dni",
          "type": "uint256"
        },
        {
          "internalType": "uint256",
          "name": "_numero_candidato",
          "type": "uint256"
        }
      ],
      "name": "registrarVotante",
      "outputs": [
        {
          "internalType": "uint256",
          "name": "",
          "type": "uint256"
        }
      ],
      "stateMutability": "nonpayable",
      "type": "function"
    }
  ],
  "bytecode": "0x60806040523480156200001157600080fd5b50600160405180606001604052806040518060400160405280600c81526020017f446f6e616c64205472756d700000000000000000000000000000000000000000815250815260200160018152602001600081525090806001815401808255809150506001900390600052602060002090600302016000909190919091506000820151816000019081620000a6919062000493565b5060208201518160010155604082015181600201555050600160405180606001604052806040518060400160405280600f81526020017f4d69636861656c204a61636b736f6e000000000000000000000000000000000081525081526020016002815260200160008152509080600181540180825580915050600190039060005260206000209060030201600090919091909150600082015181600001908162000151919062000493565b5060208201518160010155604082015181600201555050600160405180606001604052806040518060400160405280600c81526020017f496e64696f20536f6c6172690000000000000000000000000000000000000000815250815260200160038152602001600081525090806001815401808255809150506001900390600052602060002090600302016000909190919091506000820151816000019081620001fc919062000493565b50602082015181600101556040820151816002015550506200057a565b600081519050919050565b7f4e487b7100000000000000000000000000000000000000000000000000000000600052604160045260246000fd5b7f4e487b7100000000000000000000000000000000000000000000000000000000600052602260045260246000fd5b600060028204905060018216806200029b57607f821691505b602082108103620002b157620002b062000253565b5b50919050565b60008190508160005260206000209050919050565b60006020601f8301049050919050565b600082821b905092915050565b6000600883026200031b7fffffffffffffffffffffffffffffffffffffffffffffffffffffffffffffffff82620002dc565b620003278683620002dc565b95508019841693508086168417925050509392505050565b6000819050919050565b6000819050919050565b6000620003746200036e62000368846200033f565b62000349565b6200033f565b9050919050565b6000819050919050565b620003908362000353565b620003a86200039f826200037b565b848454620002e9565b825550505050565b600090565b620003bf620003b0565b620003cc81848462000385565b505050565b5b81811015620003f457620003e8600082620003b5565b600181019050620003d2565b5050565b601f82111562000443576200040d81620002b7565b6200041884620002cc565b8101602085101562000428578190505b620004406200043785620002cc565b830182620003d1565b50505b505050565b600082821c905092915050565b6000620004686000198460080262000448565b1980831691505092915050565b600062000483838362000455565b9150826002028217905092915050565b6200049e8262000219565b67ffffffffffffffff811115620004ba57620004b962000224565b5b620004c6825462000282565b620004d3828285620003f8565b600060209050601f8311600181146200050b5760008415620004f6578287015190505b62000502858262000475565b86555062000572565b601f1984166200051b86620002b7565b60005b8281101562000545578489015182556001820191506020850194506020810190506200051e565b8683101562000565578489015162000561601f89168262000455565b8355505b6001600288020188555050505b505050505050565b611352806200058a6000396000f3fe608060405234801561001057600080fd5b50600436106100575760003560e01c80632e03f8381461005c578063647fecc91461008f5780638f023f85146100bf578063ee0f7f81146100f1578063f1502efc1461010f575b600080fd5b6100766004803603810190610071919061088d565b61013f565b6040516100869493929190610959565b60405180910390f35b6100a960048036038101906100a4919061088d565b610317565b6040516100b691906109ce565b60405180910390f35b6100d960048036038101906100d4919061088d565b610380565b6040516100e8939291906109e9565b60405180910390f35b6100f9610442565b6040516101069190610b92565b60405180910390f35b61012960048036038101906101249190610ce9565b610547565b6040516101369190610d88565b60405180910390f35b6000818154811061014f57600080fd5b906000526020600020906004020160009150905080600001805461017290610dd2565b80601f016020809104026020016040519081016040528092919081815260200182805461019e90610dd2565b80156101eb5780601f106101c0576101008083540402835291602001916101eb565b820191906000526020600020905b8154815290600101906020018083116101ce57829003601f168201915b50505050509080600101805461020090610dd2565b80601f016020809104026020016040519081016040528092919081815260200182805461022c90610dd2565b80156102795780601f1061024e57610100808354040283529160200191610279565b820191906000526020600020905b81548152906001019060200180831161025c57829003601f168201915b50505050509080600201549080600301805461029490610dd2565b80601f01602080910402602001604051908101604052809291908181526020018280546102c090610dd2565b801561030d5780601f106102e25761010080835404028352916020019161030d565b820191906000526020600020905b8154815290600101906020018083116102f057829003601f168201915b5050505050905084565b600080600090505b60008054905081101561037557826000828154811061034157610340610e03565b5b9060005260206000209060040201600201540361036257600191505061037b565b808061036d90610e61565b91505061031f565b50600090505b919050565b6001818154811061039057600080fd5b90600052602060002090600302016000915090508060000180546103b390610dd2565b80601f01602080910402602001604051908101604052809291908181526020018280546103df90610dd2565b801561042c5780601f106104015761010080835404028352916020019161042c565b820191906000526020600020905b81548152906001019060200180831161040f57829003601f168201915b5050505050908060010154908060020154905083565b60606001805480602002602001604051908101604052809291908181526020016000905b8282101561053e578382906000526020600020906003020160405180606001604052908160008201805461049990610dd2565b80601f01602080910402602001604051908101604052809291908181526020018280546104c590610dd2565b80156105125780601f106104e757610100808354040283529160200191610512565b820191906000526020600020905b8154815290600101906020018083116104f557829003601f168201915b505050505081526020016001820154815260200160028201548152505081526020019060010190610466565b50505050905090565b6000806040518060800160405280604a81526020016112a0604a9139905060006002905061057485610317565b1561059d576040518060600160405280603381526020016112ea603391399150600190506107fd565b60005b6001805490508110156107fb5784600182815481106105c2576105c1610e03565b5b906000526020600020906003020160010154036107e857600060405180608001604052808a81526020018981526020018881526020016001848154811061060c5761060b610e03565b5b9060005260206000209060030201600001805461062890610dd2565b80601f016020809104026020016040519081016040528092919081815260200182805461065490610dd2565b80156106a15780601f10610676576101008083540402835291602001916106a1565b820191906000526020600020905b81548152906001019060200180831161068457829003601f168201915b5050505050815250908060018154018082558091505060019003906000526020600020906004020160009091909190915060008201518160000190816106e79190611055565b5060208201518160010190816106fd9190611055565b5060408201518160020155606082015181600301908161071d9190611055565b505050600180828154811061073557610734610e03565b5b906000526020600020906003020160020160008282546107559190611127565b92505081905550600181815481106107705761076f610e03565b5b9060005260206000209060030201600001604051602001610791919061125b565b6040516020818303038152906040529250600091507f38db1695c15cde073984e868eb5450ec29c191d675601b38df86cd8bd6a16060836040516107d5919061127d565b60405180910390a181935050505061083b565b80806107f390610e61565b9150506105a0565b505b7f38db1695c15cde073984e868eb5450ec29c191d675601b38df86cd8bd6a160608260405161082c919061127d565b60405180910390a16001925050505b949350505050565b6000604051905090565b600080fd5b600080fd5b6000819050919050565b61086a81610857565b811461087557600080fd5b50565b60008135905061088781610861565b92915050565b6000602082840312156108a3576108a261084d565b5b60006108b184828501610878565b91505092915050565b600081519050919050565b600082825260208201905092915050565b60005b838110156108f45780820151818401526020810190506108d9565b60008484015250505050565b6000601f19601f8301169050919050565b600061091c826108ba565b61092681856108c5565b93506109368185602086016108d6565b61093f81610900565b840191505092915050565b61095381610857565b82525050565b600060808201905081810360008301526109738187610911565b905081810360208301526109878186610911565b9050610996604083018561094a565b81810360608301526109a88184610911565b905095945050505050565b60008115159050919050565b6109c8816109b3565b82525050565b60006020820190506109e360008301846109bf565b92915050565b60006060820190508181036000830152610a038186610911565b9050610a12602083018561094a565b610a1f604083018461094a565b949350505050565b600081519050919050565b600082825260208201905092915050565b6000819050602082019050919050565b600082825260208201905092915050565b6000610a6f826108ba565b610a798185610a53565b9350610a898185602086016108d6565b610a9281610900565b840191505092915050565b610aa681610857565b82525050565b60006060830160008301518482036000860152610ac98282610a64565b9150506020830151610ade6020860182610a9d565b506040830151610af16040860182610a9d565b508091505092915050565b6000610b088383610aac565b905092915050565b6000602082019050919050565b6000610b2882610a27565b610b328185610a32565b935083602082028501610b4485610a43565b8060005b85811015610b805784840389528151610b618582610afc565b9450610b6c83610b10565b925060208a01995050600181019050610b48565b50829750879550505050505092915050565b60006020820190508181036000830152610bac8184610b1d565b905092915050565b600080fd5b600080fd5b7f4e487b7100000000000000000000000000000000000000000000000000000000600052604160045260246000fd5b610bf682610900565b810181811067ffffffffffffffff82111715610c1557610c14610bbe565b5b80604052505050565b6000610c28610843565b9050610c348282610bed565b919050565b600067ffffffffffffffff821115610c5457610c53610bbe565b5b610c5d82610900565b9050602081019050919050565b82818337600083830152505050565b6000610c8c610c8784610c39565b610c1e565b905082815260208101848484011115610ca857610ca7610bb9565b5b610cb3848285610c6a565b509392505050565b600082601f830112610cd057610ccf610bb4565b5b8135610ce0848260208601610c79565b91505092915050565b60008060008060808587031215610d0357610d0261084d565b5b600085013567ffffffffffffffff811115610d2157610d20610852565b5b610d2d87828801610cbb565b945050602085013567ffffffffffffffff811115610d4e57610d4d610852565b5b610d5a87828801610cbb565b9350506040610d6b87828801610878565b9250506060610d7c87828801610878565b91505092959194509250565b6000602082019050610d9d600083018461094a565b92915050565b7f4e487b7100000000000000000000000000000000000000000000000000000000600052602260045260246000fd5b60006002820490506001821680610dea57607f821691505b602082108103610dfd57610dfc610da3565b5b50919050565b7f4e487b7100000000000000000000000000000000000000000000000000000000600052603260045260246000fd5b7f4e487b7100000000000000000000000000000000000000000000000000000000600052601160045260246000fd5b6000610e6c82610857565b91507fffffffffffffffffffffffffffffffffffffffffffffffffffffffffffffffff8203610e9e57610e9d610e32565b5b600182019050919050565b60008190508160005260206000209050919050565b60006020601f8301049050919050565b600082821b905092915050565b600060088302610f0b7fffffffffffffffffffffffffffffffffffffffffffffffffffffffffffffffff82610ece565b610f158683610ece565b95508019841693508086168417925050509392505050565b6000819050919050565b6000610f52610f4d610f4884610857565b610f2d565b610857565b9050919050565b6000819050919050565b610f6c83610f37565b610f80610f7882610f59565b848454610edb565b825550505050565b600090565b610f95610f88565b610fa0818484610f63565b505050565b5b81811015610fc457610fb9600082610f8d565b600181019050610fa6565b5050565b601f82111561100957610fda81610ea9565b610fe384610ebe565b81016020851015610ff2578190505b611006610ffe85610ebe565b830182610fa5565b50505b505050565b600082821c905092915050565b600061102c6000198460080261100e565b1980831691505092915050565b6000611045838361101b565b9150826002028217905092915050565b61105e826108ba565b67ffffffffffffffff81111561107757611076610bbe565b5b6110818254610dd2565b61108c828285610fc8565b600060209050601f8311600181146110bf57600084156110ad578287015190505b6110b78582611039565b86555061111f565b601f1984166110cd86610ea9565b60005b828110156110f5578489015182556001820191506020850194506020810190506110d0565b86831015611112578489015161110e601f89168261101b565b8355505b6001600288020188555050505b505050505050565b600061113282610857565b915061113d83610857565b925082820190508082111561115557611154610e32565b5b92915050565b600081905092915050565b7f566f746f207361746973666163746f72696f2e2048617320656d697469646f2060008201527f756e20766f746f2061206661766f722064652000000000000000000000000000602082015250565b60006111c260338361115b565b91506111cd82611166565b603382019050919050565b600081546111e581610dd2565b6111ef818661115b565b9450600182166000811461120a576001811461121f57611252565b60ff1983168652811515820286019350611252565b61122885610ea9565b60005b8381101561124a5781548189015260018201915060208101905061122b565b838801955050505b50505092915050565b6000611266826111b5565b915061127282846111d8565b915081905092915050565b600060208201905081810360008301526112978184610911565b90509291505056fe4572726f723a2068617320696e74656e7461646f20656d6974697220756e20766f746f2061206661766f7220646520756e2063616e64696461746f206e6f207265676973747261646f2e566f746f2063616e63656c61646f2e2059612068617320656d697469646f20756e20766f746f207072657669616d656e74652ea2646970667358221220a55563cd1cd77f07e41451f433ef60681e5c89c5233d05bb4f6ec7ea7ac99bf564736f6c63430008120033",
  "immutableReferences": {},
  "source": "//SPDX-License-Identifier: MIT\r\npragma solidity ^0.8.18;\r\n\r\ncontract SistemaVotacion {\r\n    // Los structs son estructuras de datos instanciables al igual que las clases, solo que trabajan puramente con propiedades\r\n    // y no con mtodos.\r\n    struct Votante {\r\n        string nombre;\r\n        string apellido;\r\n        uint256 dni;\r\n        string voto;\r\n    }\r\n\r\n    struct Candidato {\r\n        string nombre;\r\n        uint256 numero;\r\n        uint256 votos;\r\n    }\r\n\r\n    // Listas de los Struct\r\n    Votante[] public votantes;\r\n    Candidato[] public candidatos;\r\n\r\n    function getCandidatos() public view returns (Candidato[] memory) {\r\n        return candidatos;\r\n    }\r\n\r\n    // Evento para registrar mensajes informativios (ver funcion \"registrarVotante\")\r\n    event EnviarMensaje(string mensaje);\r\n\r\n    // Se ejecuta automticamente una sola vez al momento de desplegar (deploy). Se utiliza para inicializar el estado del contrato.\r\n    constructor() {\r\n        candidatos.push(Candidato(\"Donald Trump\", 1, 0));\r\n        candidatos.push(Candidato(\"Michael Jackson\", 2, 0));\r\n        candidatos.push(Candidato(\"Indio Solari\", 3, 0));\r\n    }\r\n\r\n    // Devuelve un valor booleano dependiendo de si encuentra a un votante en la lista o no.\r\n    function buscarVotante(uint256 _dni) public view returns (bool) {\r\n        for (uint256 i = 0; i < votantes.length; i++) {\r\n            if (votantes[i].dni == _dni) {\r\n                return true; // El votante existe en la lista, se retorna 'true'.\r\n            }\r\n        }\r\n\r\n        return false; // El votante existe en la lista, se retorna 'false'.\r\n    }\r\n\r\n    // Se registra al votante en la blockchain y se suma su voto al candidato elegido\r\n    function registrarVotante(string memory _nombre, string memory _apellido, uint256 _dni, uint256 _numero_candidato) public returns (uint256) {\r\n        string memory mensaje = \"Error: has intentado emitir un voto a favor de un candidato no registrado.\";\r\n        uint256 codigo_salida = 2;\r\n\r\n        // Verificar si el votante no ha emitido un voto antes. Si fue as, cancelar la operacin.\r\n        if (buscarVotante(_dni)) {\r\n            mensaje = \"Voto cancelado. Ya has emitido un voto previamente.\";\r\n            codigo_salida = 1; // Retorna 1 si ya haba votado.\r\n        } else {\r\n            for (uint256 i = 0; i < candidatos.length; i++) {\r\n                if (candidatos[i].numero == _numero_candidato) {\r\n                    votantes.push(Votante(_nombre, _apellido, _dni, candidatos[i].nombre));\r\n                    candidatos[i].votos += 1;\r\n\r\n                    mensaje = string(abi.encodePacked(\"Voto satisfactorio. Has emitido un voto a favor de \", candidatos[i].nombre));\r\n                    codigo_salida = 0;\r\n                    emit EnviarMensaje(mensaje);\r\n                    return codigo_salida; // Retorna 0 si sali exitosamente.\r\n                }\r\n            }\r\n        }\r\n\r\n        emit EnviarMensaje(mensaje);\r\n        return 1; // Retorna 1 si sali exitosamente.\r\n    }\r\n}\r\n",
  "sourcePath": "C:\\Users\\JosueBP\\Documents\\TRABAJOS DE LA ESCUELA\\2023 (4to Ao Ciclo Superior)\\Administracin de Sistemas y Redes\\Administracion-de-Sistemas-y-Redes\\implementacion\\src\\contracts\\SistemaVotacion\\contracts\\SistemaVotacion.sol",
  "compiler": {
    "name": "solc",
    "version": "0.8.18+commit.87f61d96.Emscripten.clang"
  },
  "schemaVersion": "3.4.14",
  "updatedAt": "2023-05-29T20:25:50.895Z",
  "devdoc": {
    "kind": "dev",
    "methods": {},
    "version": 1
  },
  "userdoc": {
    "kind": "user",
    "methods": {},
    "version": 1
  }
}