{
  "contractName": "SistemaVotacion",
  "abi": [
    {
      "inputs": [],
      "stateMutability": "nonpayable",
      "type": "constructor"
    },
    {
      "anonymous": false,
      "inputs": [
        {
          "indexed": false,
          "internalType": "string",
          "name": "mensaje",
          "type": "string"
        }
      ],
      "name": "EnviarMensaje",
      "type": "event"
    },
    {
      "inputs": [
        {
          "internalType": "uint256",
          "name": "",
          "type": "uint256"
        }
      ],
      "name": "candidatos",
      "outputs": [
        {
          "internalType": "string",
          "name": "nombre",
          "type": "string"
        },
        {
          "internalType": "uint256",
          "name": "numero",
          "type": "uint256"
        },
        {
          "internalType": "uint256",
          "name": "votos",
          "type": "uint256"
        }
      ],
      "stateMutability": "view",
      "type": "function"
    },
    {
      "inputs": [
        {
          "internalType": "uint256",
          "name": "",
          "type": "uint256"
        }
      ],
      "name": "votantes",
      "outputs": [
        {
          "internalType": "string",
          "name": "nombre",
          "type": "string"
        },
        {
          "internalType": "string",
          "name": "apellido",
          "type": "string"
        },
        {
          "internalType": "uint256",
          "name": "dni",
          "type": "uint256"
        },
        {
          "internalType": "string",
          "name": "voto",
          "type": "string"
        }
      ],
      "stateMutability": "view",
      "type": "function"
    },
    {
      "inputs": [],
      "name": "getCandidatos",
      "outputs": [
        {
          "components": [
            {
              "internalType": "string",
              "name": "nombre",
              "type": "string"
            },
            {
              "internalType": "uint256",
              "name": "numero",
              "type": "uint256"
            },
            {
              "internalType": "uint256",
              "name": "votos",
              "type": "uint256"
            }
          ],
          "internalType": "struct SistemaVotacion.Candidato[]",
          "name": "",
          "type": "tuple[]"
        }
      ],
      "stateMutability": "view",
      "type": "function"
    },
    {
      "inputs": [
        {
          "internalType": "uint256",
          "name": "_dni",
          "type": "uint256"
        }
      ],
      "name": "buscarVotante",
      "outputs": [
        {
          "internalType": "bool",
          "name": "",
          "type": "bool"
        }
      ],
      "stateMutability": "view",
      "type": "function"
    },
    {
      "inputs": [
        {
          "internalType": "string",
          "name": "_nombre",
          "type": "string"
        },
        {
          "internalType": "string",
          "name": "_apellido",
          "type": "string"
        },
        {
          "internalType": "uint256",
          "name": "_dni",
          "type": "uint256"
        },
        {
          "internalType": "uint256",
          "name": "_numero_candidato",
          "type": "uint256"
        }
      ],
      "name": "registrarVotante",
      "outputs": [],
      "stateMutability": "nonpayable",
      "type": "function"
    }
  ],
  "bytecode": "0x60806040523480156200001157600080fd5b50600160405180606001604052806040518060400160405280600c81526020017f446f6e616c64205472756d700000000000000000000000000000000000000000815250815260200160018152602001600081525090806001815401808255809150506001900390600052602060002090600302016000909190919091506000820151816000019081620000a6919062000493565b5060208201518160010155604082015181600201555050600160405180606001604052806040518060400160405280600f81526020017f4d69636861656c204a61636b736f6e000000000000000000000000000000000081525081526020016002815260200160008152509080600181540180825580915050600190039060005260206000209060030201600090919091909150600082015181600001908162000151919062000493565b5060208201518160010155604082015181600201555050600160405180606001604052806040518060400160405280600c81526020017f496e64696f20536f6c6172690000000000000000000000000000000000000000815250815260200160038152602001600081525090806001815401808255809150506001900390600052602060002090600302016000909190919091506000820151816000019081620001fc919062000493565b50602082015181600101556040820151816002015550506200057a565b600081519050919050565b7f4e487b7100000000000000000000000000000000000000000000000000000000600052604160045260246000fd5b7f4e487b7100000000000000000000000000000000000000000000000000000000600052602260045260246000fd5b600060028204905060018216806200029b57607f821691505b602082108103620002b157620002b062000253565b5b50919050565b60008190508160005260206000209050919050565b60006020601f8301049050919050565b600082821b905092915050565b6000600883026200031b7fffffffffffffffffffffffffffffffffffffffffffffffffffffffffffffffff82620002dc565b620003278683620002dc565b95508019841693508086168417925050509392505050565b6000819050919050565b6000819050919050565b6000620003746200036e62000368846200033f565b62000349565b6200033f565b9050919050565b6000819050919050565b620003908362000353565b620003a86200039f826200037b565b848454620002e9565b825550505050565b600090565b620003bf620003b0565b620003cc81848462000385565b505050565b5b81811015620003f457620003e8600082620003b5565b600181019050620003d2565b5050565b601f82111562000443576200040d81620002b7565b6200041884620002cc565b8101602085101562000428578190505b620004406200043785620002cc565b830182620003d1565b50505b505050565b600082821c905092915050565b6000620004686000198460080262000448565b1980831691505092915050565b600062000483838362000455565b9150826002028217905092915050565b6200049e8262000219565b67ffffffffffffffff811115620004ba57620004b962000224565b5b620004c6825462000282565b620004d3828285620003f8565b600060209050601f8311600181146200050b5760008415620004f6578287015190505b62000502858262000475565b86555062000572565b601f1984166200051b86620002b7565b60005b8281101562000545578489015182556001820191506020850194506020810190506200051e565b8683101562000565578489015162000561601f89168262000455565b8355505b6001600288020188555050505b505050505050565b611555806200058a6000396000f3fe608060405234801561001057600080fd5b50600436106100575760003560e01c80632e03f8381461005c578063647fecc91461008f5780638f023f85146100bf578063ee0f7f81146100f1578063f1502efc1461010f575b600080fd5b6100766004803603810190610071919061089c565b61012b565b6040516100869493929190610968565b60405180910390f35b6100a960048036038101906100a4919061089c565b610303565b6040516100b691906109dd565b60405180910390f35b6100d960048036038101906100d4919061089c565b61036c565b6040516100e8939291906109f8565b60405180910390f35b6100f961042e565b6040516101069190610ba1565b60405180910390f35b61012960048036038101906101249190610cf8565b610533565b005b6000818154811061013b57600080fd5b906000526020600020906004020160009150905080600001805461015e90610dc6565b80601f016020809104026020016040519081016040528092919081815260200182805461018a90610dc6565b80156101d75780601f106101ac576101008083540402835291602001916101d7565b820191906000526020600020905b8154815290600101906020018083116101ba57829003601f168201915b5050505050908060010180546101ec90610dc6565b80601f016020809104026020016040519081016040528092919081815260200182805461021890610dc6565b80156102655780601f1061023a57610100808354040283529160200191610265565b820191906000526020600020905b81548152906001019060200180831161024857829003601f168201915b50505050509080600201549080600301805461028090610dc6565b80601f01602080910402602001604051908101604052809291908181526020018280546102ac90610dc6565b80156102f95780601f106102ce576101008083540402835291602001916102f9565b820191906000526020600020905b8154815290600101906020018083116102dc57829003601f168201915b5050505050905084565b600080600090505b60008054905081101561036157826000828154811061032d5761032c610df7565b5b9060005260206000209060040201600201540361034e576001915050610367565b808061035990610e55565b91505061030b565b50600090505b919050565b6001818154811061037c57600080fd5b906000526020600020906003020160009150905080600001805461039f90610dc6565b80601f01602080910402602001604051908101604052809291908181526020018280546103cb90610dc6565b80156104185780601f106103ed57610100808354040283529160200191610418565b820191906000526020600020905b8154815290600101906020018083116103fb57829003601f168201915b5050505050908060010154908060020154905083565b60606001805480602002602001604051908101604052809291908181526020016000905b8282101561052a578382906000526020600020906003020160405180606001604052908160008201805461048590610dc6565b80601f01602080910402602001604051908101604052809291908181526020018280546104b190610dc6565b80156104fe5780601f106104d3576101008083540402835291602001916104fe565b820191906000526020600020905b8154815290600101906020018083116104e157829003601f168201915b505050505081526020016001820154815260200160028201548152505081526020019060010190610452565b50505050905090565b6000826040516020016105469190610e9d565b604051602081830303815290604052805190602001209050606061056984610303565b15610595578160405160200161057f9190610fac565b6040516020818303038152906040529050610812565b60005b6001805490508110156107ee5783600182815481106105ba576105b9610df7565b5b906000526020600020906003020160010154036107db57600060405180608001604052808981526020018881526020018781526020016001848154811061060457610603610df7565b5b9060005260206000209060030201600001805461062090610dc6565b80601f016020809104026020016040519081016040528092919081815260200182805461064c90610dc6565b80156106995780601f1061066e57610100808354040283529160200191610699565b820191906000526020600020905b81548152906001019060200180831161067c57829003601f168201915b5050505050815250908060018154018082558091505060019003906000526020600020906004020160009091909190915060008201518160000190816106df9190611189565b5060208201518160010190816106f59190611189565b506040820151816002015560608201518160030190816107159190611189565b505050600180828154811061072d5761072c610df7565b5b9060005260206000209060030201600201600082825461074d919061125b565b92505081905550826001828154811061076957610768610df7565b5b906000526020600020906003020160000160405160200161078b9291906113aa565b60405160208183030381529060405291507f38db1695c15cde073984e868eb5450ec29c191d675601b38df86cd8bd6a16060826040516107cb91906113e8565b60405180910390a150505061084c565b80806107e690610e55565b915050610598565b508160405160200161080091906114ee565b60405160208183030381529060405290505b7f38db1695c15cde073984e868eb5450ec29c191d675601b38df86cd8bd6a160608160405161084191906113e8565b60405180910390a150505b50505050565b6000604051905090565b600080fd5b600080fd5b6000819050919050565b61087981610866565b811461088457600080fd5b50565b60008135905061089681610870565b92915050565b6000602082840312156108b2576108b161085c565b5b60006108c084828501610887565b91505092915050565b600081519050919050565b600082825260208201905092915050565b60005b838110156109035780820151818401526020810190506108e8565b60008484015250505050565b6000601f19601f8301169050919050565b600061092b826108c9565b61093581856108d4565b93506109458185602086016108e5565b61094e8161090f565b840191505092915050565b61096281610866565b82525050565b600060808201905081810360008301526109828187610920565b905081810360208301526109968186610920565b90506109a56040830185610959565b81810360608301526109b78184610920565b905095945050505050565b60008115159050919050565b6109d7816109c2565b82525050565b60006020820190506109f260008301846109ce565b92915050565b60006060820190508181036000830152610a128186610920565b9050610a216020830185610959565b610a2e6040830184610959565b949350505050565b600081519050919050565b600082825260208201905092915050565b6000819050602082019050919050565b600082825260208201905092915050565b6000610a7e826108c9565b610a888185610a62565b9350610a988185602086016108e5565b610aa18161090f565b840191505092915050565b610ab581610866565b82525050565b60006060830160008301518482036000860152610ad88282610a73565b9150506020830151610aed6020860182610aac565b506040830151610b006040860182610aac565b508091505092915050565b6000610b178383610abb565b905092915050565b6000602082019050919050565b6000610b3782610a36565b610b418185610a41565b935083602082028501610b5385610a52565b8060005b85811015610b8f5784840389528151610b708582610b0b565b9450610b7b83610b1f565b925060208a01995050600181019050610b57565b50829750879550505050505092915050565b60006020820190508181036000830152610bbb8184610b2c565b905092915050565b600080fd5b600080fd5b7f4e487b7100000000000000000000000000000000000000000000000000000000600052604160045260246000fd5b610c058261090f565b810181811067ffffffffffffffff82111715610c2457610c23610bcd565b5b80604052505050565b6000610c37610852565b9050610c438282610bfc565b919050565b600067ffffffffffffffff821115610c6357610c62610bcd565b5b610c6c8261090f565b9050602081019050919050565b82818337600083830152505050565b6000610c9b610c9684610c48565b610c2d565b905082815260208101848484011115610cb757610cb6610bc8565b5b610cc2848285610c79565b509392505050565b600082601f830112610cdf57610cde610bc3565b5b8135610cef848260208601610c88565b91505092915050565b60008060008060808587031215610d1257610d1161085c565b5b600085013567ffffffffffffffff811115610d3057610d2f610861565b5b610d3c87828801610cca565b945050602085013567ffffffffffffffff811115610d5d57610d5c610861565b5b610d6987828801610cca565b9350506040610d7a87828801610887565b9250506060610d8b87828801610887565b91505092959194509250565b7f4e487b7100000000000000000000000000000000000000000000000000000000600052602260045260246000fd5b60006002820490506001821680610dde57607f821691505b602082108103610df157610df0610d97565b5b50919050565b7f4e487b7100000000000000000000000000000000000000000000000000000000600052603260045260246000fd5b7f4e487b7100000000000000000000000000000000000000000000000000000000600052601160045260246000fd5b6000610e6082610866565b91507fffffffffffffffffffffffffffffffffffffffffffffffffffffffffffffffff8203610e9257610e91610e26565b5b600182019050919050565b6000602082019050610eb26000830184610959565b92915050565b600081905092915050565b7f566f746f2063616e63656c61646f2e20456c20766f74616e7465200000000000600082015250565b6000610ef9601b83610eb8565b9150610f0482610ec3565b601b82019050919050565b6000819050919050565b6000819050919050565b610f34610f2f82610f0f565b610f19565b82525050565b7f20796120686120656d697469646f20756e20766f746f207072657669616d656e60008201527f74652e0000000000000000000000000000000000000000000000000000000000602082015250565b6000610f96602383610eb8565b9150610fa182610f3a565b602382019050919050565b6000610fb782610eec565b9150610fc38284610f23565b602082019150610fd282610f89565b915081905092915050565b60008190508160005260206000209050919050565b60006020601f8301049050919050565b600082821b905092915050565b60006008830261103f7fffffffffffffffffffffffffffffffffffffffffffffffffffffffffffffffff82611002565b6110498683611002565b95508019841693508086168417925050509392505050565b6000819050919050565b600061108661108161107c84610866565b611061565b610866565b9050919050565b6000819050919050565b6110a08361106b565b6110b46110ac8261108d565b84845461100f565b825550505050565b600090565b6110c96110bc565b6110d4818484611097565b505050565b5b818110156110f8576110ed6000826110c1565b6001810190506110da565b5050565b601f82111561113d5761110e81610fdd565b61111784610ff2565b81016020851015611126578190505b61113a61113285610ff2565b8301826110d9565b50505b505050565b600082821c905092915050565b600061116060001984600802611142565b1980831691505092915050565b6000611179838361114f565b9150826002028217905092915050565b611192826108c9565b67ffffffffffffffff8111156111ab576111aa610bcd565b5b6111b58254610dc6565b6111c08282856110fc565b600060209050601f8311600181146111f357600084156111e1578287015190505b6111eb858261116d565b865550611253565b601f19841661120186610fdd565b60005b8281101561122957848901518255600182019150602085019450602081019050611204565b868310156112465784890151611242601f89168261114f565b8355505b6001600288020188555050505b505050505050565b600061126682610866565b915061127183610866565b925082820190508082111561128957611288610e26565b5b92915050565b7f566f746f207361746973666163746f72696f2e20456c20766f74616e74652000600082015250565b60006112c5601f83610eb8565b91506112d08261128f565b601f82019050919050565b7f686120656d697469646f20756e20766f746f2061206661766f72206465200000600082015250565b6000611311601e83610eb8565b915061131c826112db565b601e82019050919050565b6000815461133481610dc6565b61133e8186610eb8565b94506001821660008114611359576001811461136e576113a1565b60ff19831686528115158202860193506113a1565b61137785610fdd565b60005b838110156113995781548189015260018201915060208101905061137a565b838801955050505b50505092915050565b60006113b5826112b8565b91506113c18285610f23565b6020820191506113d082611304565b91506113dc8284611327565b91508190509392505050565b600060208201905081810360008301526114028184610920565b905092915050565b7f456c20766f74616e746520000000000000000000000000000000000000000000600082015250565b6000611440600b83610eb8565b915061144b8261140a565b600b82019050919050565b7f20686120696e74656e7461646f20656d6974697220756e20766f746f2061206660008201527f61766f7220646520756e2063616e64696461746f206e6f20726567697374726160208201527f646f2e0000000000000000000000000000000000000000000000000000000000604082015250565b60006114d8604383610eb8565b91506114e382611456565b604382019050919050565b60006114f982611433565b91506115058284610f23565b602082019150611514826114cb565b91508190509291505056fea26469706673582212201a43ad586d959bb32321fc25b3d47625209daeb914e62ca3ae951ad4dc3fd00464736f6c63430008120033",
  "immutableReferences": {},
  "source": "//SPDX-License-Identifier: MIT\r\npragma solidity ^0.8.18;\r\n\r\ncontract SistemaVotacion {\r\n    // Los structs son estructuras de datos instanciables al igual que las clases, solo que trabajan puramente con propiedades\r\n    // y no con mtodos.\r\n    struct Votante {\r\n        string nombre;\r\n        string apellido;\r\n        uint256 dni;\r\n        string voto;\r\n    }\r\n\r\n    struct Candidato {\r\n        string nombre;\r\n        uint256 numero;\r\n        uint256 votos;\r\n    }\r\n\r\n    // Listas de los Struct\r\n    Votante[] public votantes;\r\n    Candidato[] public candidatos;\r\n\r\n    function getCandidatos() public view returns (Candidato[] memory) {\r\n        return candidatos;\r\n    }\r\n\r\n    // Evento para registrar mensajes informativios (ver funcion \"registrarVotante\")\r\n    event EnviarMensaje(string mensaje);\r\n\r\n    // Se ejecuta automticamente una sola vez al momento de desplegar (deploy). Se utiliza para inicializar el estado del contrato.\r\n    constructor() {\r\n        candidatos.push(Candidato(\"Donald Trump\", 1, 0));\r\n        candidatos.push(Candidato(\"Michael Jackson\", 2, 0));\r\n        candidatos.push(Candidato(\"Indio Solari\", 3, 0));\r\n    }\r\n\r\n    // Devuelve un valor booleano dependiendo de si encuentra a un votante en la lista o no.\r\n    function buscarVotante(uint256 _dni) public view returns (bool) {\r\n        for (uint256 i = 0; i < votantes.length; i++) {\r\n            if (votantes[i].dni == _dni) {\r\n                return true; // El votante existe en la lista, se retorna 'true'.\r\n            }\r\n        }\r\n\r\n        return false; // El votante existe en la lista, se retorna 'false'.\r\n    }\r\n\r\n    // Se registra al votante en la blockchain y se suma su voto al candidato elegido\r\n    function registrarVotante(\r\n        string memory _nombre,\r\n        string memory _apellido,\r\n        uint256 _dni,\r\n        uint256 _numero_candidato\r\n    ) public {\r\n        bytes32 hashDNI = keccak256(abi.encode(_dni));\r\n        string memory mensaje;\r\n\r\n        // Verificar si el votante no ha emitido un voto antes. Si fue as, cancelar la operacin.\r\n        if (buscarVotante(_dni)) {\r\n            mensaje = string(\r\n                abi.encodePacked(\r\n                    \"Voto cancelado. El votante \",\r\n                    hashDNI,\r\n                    \" ya ha emitido un voto previamente.\"\r\n                )\r\n            );\r\n        } else {\r\n            for (uint256 i = 0; i < candidatos.length; i++) {\r\n                if (candidatos[i].numero == _numero_candidato) {\r\n                    votantes.push(\r\n                        Votante(_nombre, _apellido, _dni, candidatos[i].nombre)\r\n                    );\r\n                    candidatos[i].votos += 1;\r\n\r\n                    mensaje = string(\r\n                        abi.encodePacked(\r\n                            \"Voto satisfactorio. El votante \",\r\n                            hashDNI,\r\n                            \"ha emitido un voto a favor de \",\r\n                            candidatos[i].nombre\r\n                        )\r\n                    );\r\n                    emit EnviarMensaje(mensaje);\r\n                    return;\r\n                }\r\n            }\r\n\r\n            mensaje = string(\r\n                abi.encodePacked(\r\n                    \"El votante \",\r\n                    hashDNI,\r\n                    \" ha intentado emitir un voto a favor de un candidato no registrado.\"\r\n                )\r\n            );\r\n        }\r\n\r\n        emit EnviarMensaje(mensaje);\r\n    }\r\n}\r\n",
  "sourcePath": "C:\\Users\\JosueBP\\Documents\\TRABAJOS DE LA ESCUELA\\2023 (4to Ao Ciclo Superior)\\Administracin de Sistemas y Redes\\Administracion-de-Sistemas-y-Redes\\implementacion\\src\\contracts\\SistemaVotacion\\contracts\\SistemaVotacion.sol",
  "compiler": {
    "name": "solc",
    "version": "0.8.18+commit.87f61d96.Emscripten.clang"
  },
  "schemaVersion": "3.4.14",
  "updatedAt": "2023-05-29T11:48:46.810Z",
  "devdoc": {
    "kind": "dev",
    "methods": {},
    "version": 1
  },
  "userdoc": {
    "kind": "user",
    "methods": {},
    "version": 1
  }
}